:020000040800F2
:100000000008002055160008710500087305000857
:10001000770500087B0500087F0500080000000048
:100020000000000000000000000000008305000840
:100030008505000800000000870500088905000804
:100040006F1600086F1600086F1600086F1600087C
:100050006F1600086F160008D31100086F1600080D
:100060006F1600086F1600086F1600086F1600085C
:100070006F1600086F1600086F1600086F1600084C
:100080006F1600086F1600086F1600086F1600083C
:100090006F1600086F1600086F1600086F1600082C
:1000A0006F1600086F1600086F1600086F1600081C
:1000B0006F1600086F1600086F1600086F1600080C
:1000C0006F1600086F1600086F1600086F160008FC
:1000D0006F160008FD1300086F1600086F16000861
:1000E000071200086F1600086F1600086F16000848
:1000F0006F1600086F1600086F1600086F160008CC
:100100006F1600086F1600086F1600086F160008BB
:100110006F1600086F1600086F1600086F160008AB
:100120006F1600086F1600086F1600086F1600089B
:1001300000F002F800F03CF80AA090E8000C8244BD
:100140008344AAF10107DA4501D100F031F8AFF29A
:10015000090EBAE80F0013F0010F18BFFB1A43F0A5
:10016000010318477827000098270000103A24BFA1
:1001700078C878C1FAD8520724BF30C830C144BF0C
:1001800004680C607047000000230024002500264E
:10019000103A28BF78C1FBD8520728BF30C148BFEA
:1001A0000B6070471FB502F06DFB1FBD10B510BD91
:1001B00002F033FB1146FFF7F5FF00F009F802F0FB
:1001C00051FB03B4FFF7F2FF03BC01F0ADF80000F0
:1001D00086B00020059001F03FF800F047FB01F0E9
:1001E0009DF84FF4165001F0ACF84FF4E13000F0F8
:1001F00073FB4FF4165000F01DFF00F0C7F900F03C
:1002000009FD00F077FF00F013FB00F09DFC41F2C8
:10021000883001F058F841F2883001F054F89EE13E
:10022000CF48006838B90A2001F04DF8CC48006882
:1002300008B900F039FE0A21059890FBF1F201FBA4
:10024000120018B903A904A800F08FFA052001F0E4
:100250003AF89DF810000A2190FBF1F000F1300807
:1002600008F0FF0001F0BCF8052001F02CF89DF823
:1002700010000A2190FBF1F201FB120000F130099D
:1002800009F0FF0001F0ACF8052001F01CF89DF822
:100290001000642190FBF1F000F1300A0AF0FF0039
:1002A00001F09EF8052001F00EF89DF81000642181
:1002B00090FBF1F000F1300A0AF0FF0001F090F835
:1002C000052001F000F8052000F0FDFF9DF80C006E
:1002D0000A2190FBF1F000F1300B0BF0FF0001F070
:1002E0007FF8052000F0EFFF9DF80C000A2190FB3D
:1002F000F1F201FB1200303002900298C0B201F01E
:100300006FF8052000F0DFFF9DF80C00642190FBE2
:10031000F1F0303001900198C0B201F061F8052091
:1003200000F0D1FF9DF80C00642190FBF1F030301B
:1003300001900198C0B201F053F8052000F0C3FF0E
:100340000A21042000F07BF90446642C30DA0520F1
:1003500000F0B9FF642094FBF0F000F13005E8B242
:1003600001F03EF8052000F0AEFF642094FBF0F0B1
:1003700000F13005E8B201F033F8052000F0A3FFEA
:100380000A2094FBF0F000F13006F0B201F028F8FA
:10039000052000F098FF0A2094FBF0F100FB1140CB
:1003A00000F13007F8B201F01BF8052000F08BFFD8
:1003B000642C01DB012000E00020B4F57A7F01DA33
:1003C000012100E0002108423BD0052000F07BFF26
:1003D00042F2107094FBF0F000F13005E8B200F04A
:1003E000FFFF052000F06FFF642094FBF0F000F1A8
:1003F0003006F0B200F0F4FF052000F064FF642046
:1004000094FBF0F100FB11400A2190FBF1F000F1A8
:100410003007F8B200F0E4FF052000F054FF64203C
:1004200094FBF0F100FB11400A2190FBF1F201FB7B
:10043000120000F13005E8B200F0D2FF052000F014
:1004400042FFB4F57A7F01DB012000E0002041F299
:1004500088318C4201DA012100E0002108424DD0B0
:10046000052000F030FF4FF47A7094FBF0F000F1BB
:100470003006F0B200F0B4FF052000F024FF4FF486
:100480007A7094FBF0F100FB1140642190FBF1F0D5
:1004900000F13007F8B200F0A3FF052000F013FFD1
:1004A0004FF47A7094FBF0F100FB1140642190FB53
:1004B000F1F201FB12000A2190FBF1F000F130058E
:1004C000E8B200F08DFF052000F0FDFE4FF47A70D9
:1004D00094FBF0F100FB1140642190FBF1F201FB71
:1004E00012000A2190FBF1F201FB120000F130052D
:1004F000E8B200F075FF052000F0E5FE40F2DC50A8
:10050000844204DD0A2000F0DEFE00F085FA00F0EF
:10051000D5F914480078012807D10A2000F0D3FE4D
:1005200000F034FA00200F49087000F073F90E480B
:100530000078012807D10A2000F0C5FE00F049FA32
:100540000020094908700948006808B9012000E046
:100550000020064908604FF00A0000F0B4FE5FE694
:10056000140122420100002000000020A0012142CD
:10057000704700BFFEE700BFFEE700BFFEE700BF19
:10058000FEE77047704770477047000000B587B0BE
:1005900001214FF4017001F02CFE4FF4004001F0F6
:1005A00090FD1020ADF8040000208DF8070001A98F
:1005B0002E4801F06BFB2E4801F0E8F80020029075
:1005C0008DF80C008DF80D004FF460200490002091
:1005D000059001208DF8180002A9254801F0FDF8CA
:1005E0000121234801F025F9214801F044F900BF19
:1005F0001F4801F045F90028FAD11D4801F04AF9D9
:1006000000BF1B4801F04BF90028FAD107B000BD2C
:1006100010B50446072301222146154801F075F95B
:100620000121134801F045F900BF0221104801F0F3
:1006300098FA0028F9D00E4801F0CEF910BD2DE946
:10064000F04107460C460025002608E03846FFF733
:10065000DFFF0544052000F036FE701CC6B2A6423E
:10066000F4DBB5FBF4F080B2BDE8F0810008014096
:100670000024014010B56348006820F4700061490F
:1006800008600846006840F44010086000205E4999
:1006900008604FF0140000F016FE01205B49C1F81D
:1006A00094011E2000F0ECFD10BD10B5002455484B
:1006B000006820F47000534908600846006840F460
:1006C0000000086004E0601CC4B2012000F0D8FD06
:1006D0004F48006808B1642CF5DB642C01DB012075
:1006E00010BD002404E0601CC4B2012000F0C8FD6D
:1006F0004748006808B9642CF5DB642C01DB012055
:10070000EEE70020ECE710B5002404E0601CC4B262
:10071000012000F0B5FD3E48006808B1642CF5DB0F
:10072000002404E0601CC4B2012000F0A9FD384898
:10073000006808B9642CF5DB282000F0A1FD3448DE
:10074000006808B1012010BD0020FCE770B500244E
:10075000002506E06006040EFFF7D5FF0443681C81
:10076000C5B2082DF6DB204670BD7CB505460E46A9
:10077000FFF780FFFFF799FF28BB002405E0FFF794
:10078000E5FF0DF80400601CC4B2052CF7DB9DF8F2
:1007900000009DF8011008449DF8021008449DF8DF
:1007A000031008449DF8041088420ED19DF8000003
:1007B0009DF80110084430709DF802009DF8031068
:1007C0000844287001E001207CBD0020FCE708B54A
:1007D0000121102001F00DFD2020ADF800001020B7
:1007E0008DF8030003208DF802006946054801F0EA
:1007F0004DFA2021034801F0F4FAFFF73BFFFFF721
:1008000054FF08BD00100140940122420000224222
:100810001401224210B58021034801F0C8FA10B932
:1008200001200249087010BD0008014000000020AE
:1008300008B50121042001F0DCFC4FF42040ADF8A4
:10084000000048208DF803006946074801F01EFAB1
:100850000120ADF8000028208DF803006946024809
:1008600001F014FA08BD00000008014008B501219C
:10087000242001F0BEFC4FF48070ADF80000102081
:100880008DF8030003208DF802006946094801F045
:10089000FDF94FF48071074801F0A3FA0420ADF888
:1008A00000006946044801F0F1F90421024801F012
:1008B00098FA08BD000801400014014010B540211D
:1008C000034801F074FA10B901200249087010BD04
:1008D000000801400100002010B586B00446012147
:1008E000042001F086FC0121480401F08FFC042063
:1008F000ADF8140018208DF8170003208DF81600AD
:1009000005A9204801F0C2F90820ADF81400042020
:100910008DF8170005A91B4801F0B8F901940020D3
:10092000ADF80800ADF80A00ADF80C00ADF8100005
:100930000C20ADF80E0001A9134801F008FD0121BB
:10094000114801F090FD40210F4801F077FE06B0FC
:1009500010BD10B5044621460B4801F0F4FD00BF60
:100960008021094801F05DFE0028F9D010BD10B5C6
:10097000044603E02078FFF7ECFF641C2078002891
:10098000F8D110BD000801400044004010B534A06B
:10099000FFF7EDFF642000F096FC36A0FFF7E7FFBD
:1009A000642000F090FC39A0FFF7E1FF642000F024
:1009B0008AFC39A0FFF7DBFF642000F084FC45A02F
:1009C000FFF7D5FF642000F07EFC1A20FFF7C1FF7F
:1009D00010BD10B522A0FFF7CAFF642000F073FC21
:1009E00024A0FFF7C4FF642000F06DFC27A0FFF7F0
:1009F000BEFF642000F067FC27A0FFF7B8FF64206B
:100A000000F061FC43A0FFF7B2FF642000F05BFC44
:100A10001A20FFF79EFF10BD10B511A0FFF7A7FF2A
:100A2000642000F050FC13A0FFF7A1FF642000F049
:100A30004AFC16A0FFF79BFF642000F044FC16A0C0
:100A4000FFF795FF642000F03EFC3E48FFF78FFF64
:100A5000642000F038FC1A20FFF77BFF10BD000077
:100A600041542B435343533D2255435332220D0AE5
:100A70000000000041542B43534D503D31372C3181
:100A800036372C322C32350D0A00000041542B43EE
:100A90004D47463D310D0A0041542B434D47533DD0
:100AA000223030333130303333303033363030333E
:100AB000333030333930303333303033313030331A
:100AC00033303033323030333130303336220D0A68
:100AD000000000003637303934454241393735455A
:100AE000364344353935454635313635464630434B
:100AF0003842463737414342353337333637453549
:100B0000363630453630433535314235464630315C
:100B10000000000037303642373037453938383436
:100B2000384236364646303138424637353343410F
:100B30003635463635393034373430363330303266
:100B4000000000009428000808B50121082001F0E9
:100B500050FB0F20ADF8000003208DF8020010209C
:100B60008DF803006946294801F090F801212848D2
:100B700001F05BF908BD10B580241BE0112123486A
:100B800001F038F9032000F09EFB22211F4801F0FC
:100B900031F9032000F097FB44211C4801F02AF9A9
:100BA000032000F090FB8821184801F023F903206E
:100BB00000F089FB2000A4F101018CB2DED110BD50
:100BC00010B580241BE08821104801F013F90320A0
:100BD00000F079FB44210D4801F00CF9032000F0EE
:100BE00072FB2221094801F005F9032000F06BFB9C
:100BF0001121064801F0FEF8032000F064FB2000FC
:100C0000A4F101018CB2DED110BD0000000C014046
:100C10000002300008B50121102001F0EAFA4FF47B
:100C20008050ADF8000010208DF8030003208DF8EF
:100C3000020069460E4801F029F84FF480510C4833
:100C400001F0D1F808BD10B54FF48051084801F00B
:100C5000C8F84FF4FA7000F036FB4FF480510448A6
:100C600001F0C1F84FF4FA7000F02DFB10BD000048
:100C7000001001402DE9F04105460E4617460024BC
:100C800006E015F8018B404600F013FA601CC4B270
:100C9000B442F6DB002405E000F019FAD249085509
:100CA000601CC4B2BC42F7DBCF48407A10B90120C7
:100CB000BDE8F0810020FBE710B504460C22114688
:100CC000CA48FFF7D7FFB8B1012C09D10C220D217A
:100CD000C748FFF7CFFF08B1012010BD0020FCE797
:100CE000022C0BD10C220D21C248FFF7C3FF08B123
:100CF0000120F2E70020F0E70020EEE70020ECE71B
:100D000010B510221121BC48FFF7B4FF40B1B6481E
:100D1000C17A807A01EB0020B8490860012010BD3B
:100D20000020FCE770B50025002411E00120FFF74A
:100D3000C3FF01280AD1FFF7E3FF0546012D03D1C8
:100D4000AE480068C0B270BDFF20FCE7601CC4B2B2
:100D5000142CEBDB0020F6E770B50546002400BF3D
:100D600005E0A748005DA0490855601CC4B2102CDE
:100D7000F7DB9D480573807B28449B4988730C22D0
:100D800010219948FFF776FF012800D170BD00209F
:100D9000FCE770B50024002518E00120FFF78CFF68
:100DA0000446012C0BD10025964908604FF06400E1
:100DB00000F089FA00209449C1F8B00107E02CB98D
:100DC000681CC5B2282D01DB002070BDE5E700BF1F
:100DD000002501208B4908604FF0640000F073FA91
:100DE00000208949C1F8B0014FF4FA6000F06BFAB5
:100DF0002FE00220FFF760FF0446012C22D10C22D5
:100E000011468248FFF736FFD0B101207D490860C6
:100E10004FF0640000F057FA00207B49C1F8B001A0
:100E2000642000F050FA0120764908604FF0640019
:100E300000F049FA00207449C1F8B0010120C4E76C
:100E40000020C2E72CB9681CC5B2192D01DB0020B7
:100E5000BBE7CEE7002101460A2291FBF2F23032D5
:100E60006B4B1A700A2291FBF2F302FB1312303221
:100E7000674B5A70704700B56648007840B900204B
:100E8000654908604FF001006449C1F8A00107E01E
:100E90000020634908604FF001006249C1F88801F1
:100EA0000020FFF7D7FF00BD10B5FFF7E4FF0024D7
:100EB00022E00C2210215C48FFF7DCFEA8B10020E4
:100EC000554908604FF01E0000F0FDF901204E4921
:100ED000C1F8B0010020FFF7BDFF4FF4967000F09D
:100EE000F2F900204749086008E001204C490860F9
:100EF0004C49C1F8880101E0062CDADB00BF6FE045
:100F00004448007878BBFFF70DFF48490870084651
:100F10000078012813DB08460078A2280FDC084679
:100F20000078FFF797FF41480078012801D1FFF7CB
:100F300022FE3E480078022801D1FFF741FE012041
:100F4000304908604FF0640000F0BDF900202E49E0
:100F5000C1F8B001002404E0322000F0B4F9601CB4
:100F6000C4B2142CF8DB31480078FF282CD10020C3
:100F7000FFF770FF0120234908604FF0640000F084
:100F8000A2F900202049C1F8B001642000F09BF9CB
:100F900001201C4908604FF0640000F094F9002023
:100FA0001949C1F8B001642000F08DF901201549FC
:100FB00008604FF0640000F086F900201249C1F883
:100FC000B001642000F07FF919480078012807D1AA
:100FD0000A2000F078F916480078012800D100E0D6
:100FE0008EE700BF10BD0000C40000202C000020D0
:100FF0003A00002047000020540000208400002018
:1010000065000020B001224200002242750000204D
:10101000880000208B0000208881224200002142AD
:10102000A001214200802242100000208200002006
:101030008C00002010B586B004460121082001F084
:10104000D8F80121880401F0E1F84FF48060ADF890
:10105000140018208DF8170003208DF8160005A93C
:10106000224800F013FE4FF40060ADF81400042095
:101070008DF8170005A91D4800F008FE0194002016
:10108000ADF80800ADF80A00ADF80C00ADF810009E
:101090000C20ADF80E0001A9154801F058F9012106
:1010A000134801F0E0F94021114801F0C7FA06B0F9
:1010B00010BD10B5044621460D4801F044FA00BFAA
:1010C00080210B4801F0ADFA0028F9D010BD10B511
:1010D00000BF2021064801F0A4FA0028F9D00448F6
:1010E00001F035FAC4B2204610BD0000000C0140EA
:1010F000004800401FB50121052001F07AF84FF4A7
:101100002040ADF80C0048208DF80F0003A94D4891
:1011100000F0BCFD0120ADF80C0028208DF80F0078
:1011200003A9484800F0B2FD0D21002000F0C2FEE6
:101130004FF40050019000208DF808000C208DF82D
:10114000090001208DF80A0001A801F0D2FA0F2150
:10115000002000F0AFFE4FF40040019000208DF819
:1011600008000C208DF8090001208DF80A0001A864
:1011700001F0BFFA0021084600F09CFE012001901A
:1011800000208DF8080008208DF8090001208DF856
:101190000A0001A801F0ADFA28208DF80000022015
:1011A0008DF8010001208DF802008DF803006846DB
:1011B00000F075FA06208DF8000002208DF801007D
:1011C0008DF8020001208DF80300684600F067FAF0
:1011D0001FBD10B5012001F0F9FA80B11A4800686E
:1011E00001280CD1052000F06EF81748006801288E
:1011F00005D100201549087001201549087001200B
:1012000001F0F5FA10BD10B54FF4005001F0DEFA10
:1012100030B100200D49087001200D49087007E029
:101220004FF4004001F0D2FA10B1012009490870D2
:101230004FF4005001F0DBFA4FF4004001F0D7FA10
:1012400010BD000000080140000121428B00002079
:101250008D0000208C00002010B56FF0040000F01D
:1012600072FA2A4800682A49B0FBF1F0294908704F
:10127000084600784FF47A7148432749088010BD2A
:101280000146244A12784A434FF0E0235A61002273
:101290009A611A46126942F001021A6100BF4FF0CA
:1012A000E022106910F0010F02D010F4803FF6D058
:1012B0004FF0E022126922F001024FF0E0231A61A0
:1012C00000229A6170470146134A12884A434FF040
:1012D000E0235A6100229A611A46126942F0010223
:1012E0001A6100BF4FF0E022106910F0010F02D028
:1012F00010F4803FF6D04FF0E022126922F0010294
:101300004FF0E0231A6100229A6170479C00002090
:1013100000127A008E0000209000002010B54FF4DB
:10132000A06000F0B7F910BD014600BF704700BFD4
:10133000514A128812F0400FFAD0C2B24F4B1A80B5
:10134000704710B586B00446012144F2040000F055
:1013500050FF494800F0B8FF4FF40070ADF814009A
:1013600003208DF8160018208DF8170005A94448B1
:1013700000F08CFC4FF48060ADF8140004208DF870
:10138000170005A93E4800F081FC25208DF80000DB
:1013900003208DF801008DF8020001208DF8030074
:1013A000684600F07CF901940020ADF80800ADF823
:1013B0000A00ADF80C00ADF810000C20ADF80E00DE
:1013C00001A92D4800F0C3FF012240F225512A480F
:1013D00001F055F80121284801F045F806B010BD8C
:1013E00010B504462146244801F0ADF800BF802125
:1013F000214801F016F90028F9D010BD10B540F2CF
:1014000025511D4801F023F910B31B4801F09FF846
:10141000C4B21C48008810F4004F2BD11948008832
:1014200010F4804F0CD00A2C03D0002015490880FE
:1014300020E01448008840F400401249088019E078
:101440000D2C06D10F48008840F480400D490880DB
:1014500010E00C480088C0F30D000B490C540948FB
:101460000088401C0749088008460088C72801DD1D
:101470000020088010BD0000003801400438014001
:101480000008014094000020D60000200021002028
:10149000674A126842F48032654B1A6000BF644AA2
:1014A000126802F40030491C10B9B1F5A06FF6D1F2
:1014B0005F4A126812F4003F01D0012000E00020D2
:1014C000012842D15B4A126842F01002594B1A605F
:1014D0001A46126822F003021A601A46126842F095
:1014E00002021A60524A5268514B5A601A465268B8
:1014F0005A601A46526842F480625A601A4652682C
:1015000022F47C125A601A46526842F4E8125A6079
:101510001A46126842F080721A6000BF444A12688C
:1015200012F0007FFAD0424A526822F00302404B88
:101530005A601A46526842F002025A6000BF3C4AA2
:10154000526802F00C02082AF9D1704710B5FFF773
:101550009DFF10BD10B53648006840F001003449C9
:1015600008600846406834490840314948600846E8
:101570000068324908402E4908600846006820F497
:10158000802008600846406820F4FE0048604FF460
:101590001F008860FFF7DAFF4FF0006028490860FD
:1015A00010BD10B5002100200022214B5B6803F024
:1015B0000C0121B1042906D0082928D107E0214BCC
:1015C000214C236027E01F4B1F4C236023E0184B66
:1015D0005B6803F47010164B5B6803F480320223DF
:1015E00003EB904022B9194B4343174C23600DE0A5
:1015F0000F4B5B6813F4003F04D0144B4343124C71
:10160000236003E00F4B43430F4C236003E00D4B7B
:101610000D4C236000BF00BF054B5B68C3F3031391
:101620000B4CE15C084B1B68CB40074C236010BDA2
:1016300000100240002002400000FFF8FFFFF6FE0D
:1016400008ED00E000127A009C00002000093D0037
:10165000A00000200948804709480047FEE7FEE750
:10166000FEE7FEE7FEE7FEE7FEE7FEE7FEE7FEE752
:1016700004480549054A064B704700005515000807
:1016800031010008000200200008002000040020B2
:101690000004002036490143364A1160704770B596
:1016A000002100230F22C4784CB3324C246804F488
:1016B000E064C4F5E0644FEA1421C1F1040322FAA6
:1016C00001F2447804FA03F1847804EA020444EA5B
:1016D00001014FEA0111284C0678A155047804F065
:1016E0001F054FF0010404FA05F405784FEA65156B
:1016F0004FF0E02606EB8505C5F8004109E00478C7
:1017000004F01F050124AC401C4D0678761145F805
:10171000264070BD1A4A0A4002431A4B1A607047AD
:1017200041B1194A126842EA00024FF0E023C3F8BF
:10173000102D07E0144A126822EA00024FF0E0235D
:10174000C3F8102D7047042808D14FF0E021096933
:1017500041F004014FF0E022116107E04FF0E02179
:10176000096921F004014FF0E02211617047000087
:101770000000FA050CED00E000E400E080E100E08C
:1017800080FFFF1F08ED00E010ED00E010B50446FB
:10179000F848844208D10121401500F044FD0021A1
:1017A000601500F040FD17E0F348844208D10121A4
:1017B000001500F038FD0021201500F034FD0BE08D
:1017C000EE48844208D10121C80300F02CFD00211D
:1017D0004FF4004000F027FD10BD30B50246002058
:1017E00000235068E64C20400D790C6844EA05243B
:1017F000204350609068E34C2040D1E902542C43D0
:101800004D7944EA450420439060D06A20F470008A
:101810000C7C641EE4B2234340EA0350D06230BD26
:1018200000210160017141718160C1600121017479
:10183000704721B1826842F00102826003E0826851
:1018400022F001028260704721B1826842F4807206
:10185000826003E0826822F480728260704710B573
:101860000023CBB21AB144681C43446002E04468D0
:101870009C43446010BD816841F00801816070475D
:10188000014600208A6812F0080F01D0012000E014
:1018900000207047816841F0040181607047014673
:1018A00000208A6812F0040F01D0012000E000201F
:1018B000704721B1826842F4A002826003E082682E
:1018C00022F4A00282607047014600208A6812F468
:1018D000800F01D0012000E00020704710B50A46BB
:1018E00000210023416821F46041531E41EA433145
:1018F000416010BD21B1426842F40062426003E0E1
:10190000426822F4006242607047F0B504460D461A
:1019100000200021092D11DDE068A5F10A0606EB83
:101920004607072606FA07F18843A5F10A0606EBE3
:10193000460603FA06F10843E0600CE0206905EB77
:101940004507072606FA07F1884305EB450603FA23
:1019500006F108432061072A0FDA606B561E06EB7A
:1019600086071F2606FA07F18843561E06EB8606F1
:1019700005FA06F10843606322E00D2A0FDA206BB6
:10198000D61F06EB86071F2606FA07F18843D61FE7
:1019900006EB860605FA06F10843206310E0E06ACC
:1019A000A2F10D0606EB86071F2606FA07F188430B
:1019B000A2F10D0606EB860605FA06F10843E06281
:1019C000F0BD21B1826842F48012826003E0826837
:1019D00022F48012826070470146C86C80B2704762
:1019E00069480068704721B1426842F480624260F1
:1019F00003E0426822F480624260704721B142688D
:101A000042F48052426003E0426822F48052426015
:101A100070470A460021816821F4E041114381604A
:101A2000704721B1826842F40042826003E082681C
:101A300022F400428260704721B1826842F40212AF
:101A4000826003E0826822F40212826070470146DD
:101A500000208A6812F4001F01D0012000E000205D
:101A60007047F0B5044615460020002200260929DB
:101A700011DDE068A1F10A0707EB470C072707FA19
:101A80000CF29043A1F10A0707EB470703FA07F2AC
:101A90001043E0600CE0206901EB410C072707FAD6
:101AA0000CF2904301EB410703FA07F21043206167
:101AB000A06BC0F30156EF1C06F1010CA7EB0C075D
:101AC00007EB870C1F2707FA0CF29043EF1C06F177
:101AD000010CA7EB0C0707EB870701FA07F210438D
:101AE000A063F0BD10B50A4600210023816B21F4EC
:101AF0004011531E41EA0351816310BD10B500230C
:101B000003460B441A6010BD02460023134601F140
:101B100028000344186880B270470A4600214168D3
:101B20001A4B19401143416070474162826270470D
:101B30000A460021416821F01F01114341607047AE
:101B400038B11349096841F40001124AC2F8081477
:101B500006E00F49096821F400010E4AC2F8081492
:101B600070470246002013680B4201D0012000E0BC
:101B7000002070470024014000280140003C014043
:101B8000FFFEF0FFFDF7F1FF4C240140FFFD3FFF9A
:101B90000824014000200140CA430260704770B52C
:101BA00002460020002300240B125568CEB205EA3D
:101BB000060415681D4202D00CB1012000E000208F
:101BC00070BD00220A12D3430360704710B504466B
:101BD000CA48844208D10121042000F024FB0021DE
:101BE000042000F020FB46E0C548844208D10121D2
:101BF000082000F018FB0021082000F014FB3AE058
:101C0000C048844208D10121102000F00CFB0021C3
:101C1000102000F008FB2EE0BB48844208D10121CF
:101C2000202000F000FB0021202000F0FCFA22E040
:101C3000B648844208D10121402000F0F4FA002186
:101C4000402000F0F0FA16E0B148844208D10121AA
:101C5000802000F0E8FA0021802000F0E4FA0AE099
:101C6000AC48844207D10121801500F0DCFA002144
:101C7000A01500F0D8FA10BD10B50121084600F0FB
:101C8000D2FA0021012000F0CEFA10BD2DE9F0417A
:101C9000024600250026002000230024002791F89A
:101CA00003C00CF00F0591F803C01CF0100F03D017
:101CB00091F802C04CEA0505B1F800C01CF0FF0F16
:101CC00031D0146800202BE04FF0010C0CFA00F327
:101CD000B1F800C00CEA03069E4220D183004FF009
:101CE0000F0C0CFA03F7BC4305FA03FC4CEA04049E
:101CF00091F803C0BCF1280F06D14FF0010C0CFA8B
:101D000000FCC2F814C00AE091F803C0BCF1480F0F
:101D100005D14FF0010C0CFA00FCC2F810C0401CB9
:101D20000828D1D31460B1F800C0BCF1FF0F34DD36
:101D3000546800202EE000F1080C4FF0010808FA6A
:101D40000CF3B1F800C00CEA03069E4221D18300D7
:101D50004FF00F0C0CFA03F7BC4305FA03FC4CEAF6
:101D6000040491F803C0BCF1280F05D100F1080C60
:101D700008FA0CF8C2F8148091F803C0BCF1480FBF
:101D800007D100F1080C4FF0010808FA0CF8C2F86E
:101D90001080401C0828CED35460BDE8F0814FF677
:101DA000FF710180022181700421C17070470246D9
:101DB000002093680B4201D0012000E00020704712
:101DC0000146886880B2704702460020D3680B4203
:101DD00001D0012000E0002070470146C86880B2B1
:101DE000704701617047416170470AB1016100E0CD
:101DF00041617047C16070474FF480320A4382618D
:101E00008161826182698269704702460020424B8B
:101E100018684FF68073184040EA021008433E4BA2
:101E2000186070473D49C8617047F0B50A46002305
:101E300000240021002500F00046B6F1004F02D139
:101E4000354EF16901E0344E7168C0F3034583B249
:101E500000F44016B6F5401F08D121F070612E4EF7
:101E6000766826F070662C4F7E6012E000F48016D3
:101E7000B6F5801F06D1032606FA05F4A14341F00A
:101E8000706106E0460D360103FA06F6B14341F0F3
:101E9000706122B1460D360103FA06F6314300F0B7
:101EA0000046B6F1004F02D11B4EF16101E01A4E1F
:101EB0007160F0BD30B500228B071C0F0F2303FAB1
:101EC00004F2154B08338C1053F824309343124C12
:101ED00008348D1044F8253023468C1053F82430F4
:101EE0008C07240F00FA04F423430B4C08348D10A4
:101EF00044F8253030BD0A490860704700080140A9
:101F0000000C014000100140001401400018014085
:101F1000001C014000200140000001400000204260
:101F2000DC002042DB48006840F00100D94908602D
:101F300008464068D8490840D649486008460068C5
:101F4000D6490840D34908600846006820F480203C
:101F500008600846406820F4FE0048604FF41F0007
:101F600088607047CB49096821F48031C94A116003
:101F70001146096821F480211160B0F5803F03D03B
:101F8000B0F5802F0ED106E0C249096841F48031D6
:101F9000C04A116007E0BF49096841F4A021BD4A69
:101FA000116000E000BF00BF704710B5014600227D
:101FB000002300204A11012A02D1B64C236806E012
:101FC000022A02D1B34C236A01E0B24C636A01F0E9
:101FD0001F02012494401C4201D0012000E0002097
:101FE00010BD70B500240025002600BF3120FFF78A
:101FF000DCFF0646641CB4F5A06F01D0002EF5D0BE
:102000003120FFF7D2FF08B1012500E00025284666
:1020100070BD014600209F4A106820F0F80040EA99
:10202000C100106070479E4908607047024600205A
:10203000984B586820F47C1042EA01031843954BF2
:102040005860704796490866704701460020914ADB
:10205000506820F003000843506070478D48406886
:1020600000F00C007047014600208A4A506820F0BA
:10207000F00008435060704701460020854A5068D0
:1020800020F4E06008435060704701460020814A18
:10209000506820F4605040EAC1005060704729B198
:1020A0007C4A527A02437B4B5A7206E0794A527A52
:1020B000C343DBB21A40774B5A72704779490860C4
:1020C000704701460020734A506820F4404008439E
:1020D000506070470021744A11706E4A82F82010D7
:1020E000012802D0042808D103E001216E4A1170B2
:1020F00004E005216C4A117000E000BF00BF70478A
:102100006A49086070476349096A0143614A11627C
:10211000704767490860704730B5002100220024ED
:1021200000235C4D6D6805F00C0121B1042905D038
:10213000082923D105E05F4D056022E05D4D056073
:102140001FE0544D6D6805F47012524D6D6805F432
:102150008034022505EB92421CB9574D554305606A
:102160000BE04C4D6D6815F4003F03D0524D5543C4
:10217000056002E04F4D5543056002E04D4D05609E
:1021800000BF00BF434D6D6805F0F00109094B4DDC
:102190006B5C0568DD4045603E4D6D6805F4E061AF
:1021A000090A464D6B5C4568DD408560394D6D68B8
:1021B00005F46051C90A414D6B5C4568DD40C5605E
:1021C000344D6D6805F44041890B3D4D6B5CC5682D
:1021D000B5FBF3F5056130BD29B12E4A52690243C2
:1021E0002C4B5A6104E02B4A52698243294B5A61B5
:1021F000704729B1274A92690243264B9A6104E04D
:10220000244A92698243234B9A61704729B1214A3B
:10221000D26902431F4BDA6104E01E4AD26982434D
:102220001C4BDA61704729B11A4AD2680243194B34
:10223000DA6004E0174AD2688243164BDA607047CE
:1022400029B1144A12690243124B1A6104E0114A7F
:10225000126982430F4B1A6170471A490860704730
:102260000F49C86470470B49C87170470948406AF4
:1022700040F0807007494862704701460020054AD7
:1022800092680A4201D0012000E000207047014915
:1022900088727047001002400000FFF8FFFFF6FE52
:1022A00000004242D80042422010024080044242D4
:1022B0003C04424200127A0000093D00B0000020B8
:1022C000C00000204004424210B50446FC4884424D
:1022D00009D101218803FFF7A6FF00214FF48040B8
:1022E000FFF7A1FF32E0F748844209D101214804F9
:1022F000FFF7A6FF00214FF40030FFF7A1FF25E014
:10230000F148844209D101218804FFF799FF002197
:102310004FF48020FFF794FF18E0EC48844209D185
:102320000121C804FFF78CFF00214FF40020FFF7C4
:1023300087FF0BE0E648844208D101210805FFF73A
:102340007FFF00214FF48010FFF77AFF10BD2DE9C9
:10235000F04786B005460E460024A24600BFA146BF
:102360000027B08900B100BF2F462C8A4CF6FF70C1
:102370000440F08804432C82AC894EF6F3100440EC
:10238000B08831890843718908430443AC81AC8A21
:102390004FF6FF400440B0890443AC8201A8FFF728
:1023A000BBFEC748874202D1DDF810A001E0DDF88E
:1023B0000CA0A88910F4004F08D00AEBCA0000EB6B
:1023C0000A1031684900B0FBF1F807E00AEBCA00D7
:1023D00000EB0A1031688900B0FBF1F86420B8FB0B
:1023E000F0F004012009642101FB1089A88910F490
:1023F000004F08D0322000EBC900B0FBF1F000F034
:102400000700044308E0322000EB09106421B0FB10
:10241000F1F000F00F0004432C8106B0BDE8F08716
:102420004FF41651016000218180C18001810C218F
:10243000418100218181704710B502460020108A39
:102440004FF2FF0318400B884C8823438C882343AA
:10245000CC8823431843108210BD002101804180A5
:102460008180C180704721B1828942F4005282810B
:1024700004E082894DF6FF731A4082817047F0B5FF
:1024800003460024002600250020A1F510676A3FBE
:1024900000D100BF1846C1F3421401F01F06012706
:1024A00007FA06F5012C01D10C3004E0022C01D111
:1024B000103000E014301AB107682F43076002E0C3
:1024C0000768AF430760F0BD10B51AB1838A0B43AC
:1024D000838204E0838ACC43A4B22340838210BD6C
:1024E000028A4FF6F0731A400282028A0A4302827D
:1024F000704782894FF2FF731A40828182890A43B2
:102500008281704721B1828942F00202828104E017
:1025100082894FF6FD731A4082817047028A4FF616
:10252000DF731A400282028A0A430282704721B195
:10253000028A42F48042028204E0028A4BF6FF7370
:102540001A4002827047C1F3080282807047014638
:102550008888C0F308007047818941F001018181BA
:102560007047028BD2B20283028B42EA01220283BD
:102570007047028B02F47F420283028B0A4302837C
:10258000704721B1828A42F02002828204E0828A6E
:102590004FF6DF731A408282704721B1828A42F07F
:1025A0001002828204E0828A4FF6EF731A40828220
:1025B000704721B1828A42F00802828204E0828A56
:1025C0004FF6F7731A408282704721B1828942F434
:1025D0000042828103E08289C2F30E028281704749
:1025E00021B1828A42F40062828204E0828A4FF240
:1025F000FF731A4082827047828A4FF6FB731A403B
:102600008282828A0A438282704721B1828A42F0A2
:102610000202828204E0828A4FF6FD731A408282AF
:10262000704702460020B1F5007F00D100BF13883B
:102630000B4201D0012000E00020704701F400723D
:10264000B2F5007F00D100BFCA430280704770B569
:1026500002460024002300250020A1F510666A3EF2
:1026600000D100BFC1F3421501F01F03012606FA95
:1026700003F3012D02D19689334006E0022D02D1E9
:10268000168A334001E0968A33400C12012606FA7E
:1026900004F41688344013B10CB1012000E000208E
:1026A00070BD10B500220023A1F510646A3C00D172
:1026B00000BF0A1201249440A3B2DC43048010BD81
:1026C000003801400044004000480040004C0040F9
:1026D000005000400020474908604749C1F8040401
:1026E0004649086001F10401086045484549086011
:1026F000704700213F498279DAB33F4AD2F800247B
:1027000003689A433C4BC3F800241A46D2F80424C9
:1027100003689A4301F104031A60027911440A68BC
:10272000036842EA03020A60334AD2F808240368C5
:1027300022EA0302304BC3F808241A46D2F80C24CC
:10274000036822EA0302304B1A604279102A11D141
:10275000294AD2F8082403681A43274BC3F80824EF
:102760001A46D2F80C2403681A43234BC3F80C24EE
:102770000EE007E01F49427911440A6803681A43D2
:102780000A6005E0027911440A6803689A430A6006
:1027900070470021016001710C214171002181719C
:1027A00070471A49096841EA0001134AC2F8101437
:1027B000704701460020134A12680A4201D00120E6
:1027C00000E0002070470F49086070470146002074
:1027D0000022084B1B6803EA0102074BD3F81434AC
:1027E0000B4202D00AB1012000E0002070470549E9
:1027F00008607047000401400000014008040140E7
:10280000FFFF0F00140401400C04014010040140BC
:1028100070477047704770477047754600F028F85A
:10282000AE4605006946534620F00700854618B0BD
:1028300020B5FEF71DFFBDE820404FF000064FF029
:1028400000074FF000084FF0000B21F00701AC46E5
:10285000ACE8C009ACE8C009ACE8C009ACE8C00904
:102860008D4670470446AFF300802046FDF7A9FC73
:1028700000487047A001002001487047704700BF22
:10288000A401002010B5FFF7F7FF4FF00001016031
:1028900010BD0000363631333731433336433134DF
:1028A00034463533364236333537323838353133BE
:1028B000354546364646304338424637374143422F
:1028C00035333733363339323936363439363639AB
:1028D000363043354646303100000000FC28000801
:1028E00000000020C40000006C010008C02900089E
:1028F000C40000203C070000880100080000000020
:10290000EF01FFFFFFFF010003010005EF01FFFFE3
:10291000FFFF0100071300000000001BEF01FFFF95
:10292000FFFF0100030D0011EF01FFFFFFFF01009A
:10293000030100050000EF01FFFFFFFF010004029B
:10294000010008EF01FFFFFFFF0100040202000980
:10295000EF01FFFFFFFF0100080401000000650018
:1029600073EF01FFFFFFFF01000606020000000FEA
:1029700000EF01FFFFFFFF01000305000900000059
:102980000000000000000000000000000000000047
:10299000000000000000000000A24A040000000047
:1029A00000000000010203040607080900000000FF
:1029B00001020304010203040607080902040608D1
:0400000508000131BD
:00000001FF
